S01600007072657373615F726F746F6E64692E7372656322
S3150000000060120020BD27000001250000B92700006E
S31500000010B9270000B9270000B9270000B92700005A
S31500000020000000000000000000000000B9270000EA
S31500000030B927000000000000B92700008D0A000063
S3150000004071160000ED150000FD16000031170000C6
S315000000503123000000000000000000000000000046
S31500000060000000000000000000000000000000008A
S31500000070000000000000000000000000000000007A
S31500000080000000000000000000000000000000006A
S31500000090000000000000000000000000000000005A
S31500000400FFFFFFFFDFCEFFFFFCFF0F00FFFF0F0028
S31500000410FCFF0F00FFFF0F00FCFF0F00FFFF0F00A8
S31500000420FCFF0F20FFFF0F20FCFF7F40FFFF7F40F8
S31500000430FCFF0D40FFFF0D40FFFFFFFF40F27C0079
S3150000044040F27C03C2F20000C2F2000310B5834200
S3150000045005D040F20003C0F2000303B1984710BD77
S3150000046040F27C0040F27C03C2F20000C2F20003BC
S315000004701B1A9A10D90F8918491010B529B140F2E4
S315000004800003C0F2000303B1984710BD10B540F257
S315000004909004C2F20004237873B9FFF7CFFF40F24D
S315000004A00003C0F200032BB143F67020C0F2000037
S315000004B000E000BF0123237010BDC04640F20003D8
S315000004C0C0F2000310B54BB140F2940143F6702020
S315000004D0C2F20001C0F2000000E000BFFFF7C0FF5B
S315000004E010BDC04610B51022002103F05BF810BD08
S315000004F00300807A00B1987B7047C046827A030079
S31500000500002002B19889704710B50400FFF7EAFF92
S31500000510200000F047F800F0FFFD10BD70B540F276
S31500000520AC06C2F200063468050000F0E3FAF534C2
S31500000530FF34241A002C06DD280000F061F828009C
S3150000054000F00AFE70BD00F0BDF9A880002000F0A2
S31500000550A5F82881012000F0A1F8E88000F0CAFA89
S315000005603060E9E740F2B00370B500240125C2F21D
S3150000057000035E882900A14031404942E0B2C90F1C
S31500000580013400F001FA102CF4D170BD40F2B00332
S3150000059010B5C2F2000318788300C018400000F0BE
S315000005A0C9F910BD70B540F2B40543F2D13343F238
S315000005B04952C2F2000582B00100C0F200032800D1
S315000005C0C0F2000240F2B00402F068FB002640F2DE
S315000005D08D53C2F20004210001222800C0F200035C
S315000005E0009602F06FFB40F2655302222800C0F22B
S315000005F00003A11C009602F065FB02B070BDC04668
S3150000060070B540F2B0040500FFF772FFC2F20004B5
S3150000061020702800FFF772FF608000F06BFA01007F
S3150000062040F2B400C2F2000002F0B0FB70BDC0465A
S3150000063043F6A00140F2404010B5C0F20001C2F2FC
S31500000640000001F0B7FD58B943F68C0140F2404076
S31500000650C0F20001C2F2000001F06EFC78B910BDD4
S3150000066043F21C7343F26C7243F230701321C0F2F2
S315000006700003C0F20002C0F2000001F00DFF43F2D9
S315000006801C7343F26C7243F230701621C0F2000301
S31500000690C0F20002C0F2000001F0FEFE40F20813B4
S315000006A082B0C2F20003009340F2F003C2F20003EC
S315000006B001936B468000C35818885B88C0180A23CC
S315000006C0B0FBF3F080B202B07047C04670B540F29E
S315000006D0EC05C2F200052C6800F00CFA6434241A0A
S315000006E0002C00DD70BD40F24040C2F2000001F077
S315000006F0F7FB00F0FFF92860F4E7C04600B5837801
S3150000070083B0002B2AD108228256002A2BD0022A37
S3150000071022D16A4640F24040D38000210632C2F21E
S31500000720000001F0E3FB6B4640F20412D88840F269
S31500000730F003C2F200021188C2F200034900C85257
S315000007400A20138801339BB2B3FBF0F0810009182D
S3150000075049005B1A9BB2138003B000BDC046C04679
S31500000760C046C046F8E76B4640F24040DA800021BA
S315000007709A1DC2F2000001F0B9FB6B4640F21C1252
S31500000780D88840F20813C2F200021188C2F20003B0
S31500000790D4E7C04670B540F2241540F22016C2F2E6
S315000007A000052B78C2F20006346833B100F0A2F9D6
S315000007B03234241A002C1BDD70BD00F09BF940F288
S315000007C0D07C6444241A002CF6DC43F2E473012244
S315000007D0C0F2000318689B68DB6940F20041984745
S315000007E02B785A4253412B7000F084F93060E3E7CE
S315000007F043F2E473C0F2000318689B680022DB69C9
S31500000800EBE7C04640F22C1010B5C2F2000002F031
S315000008104FFB10BDF0B5DE4640F2281B57464E464C
S315000008204546C2F2000B5B46E0B589B01C6800F095
S3150000083061F90A34241A002C06DD09B0F0BCBB4667
S31500000840B246A946A046F0BD43F27C7302AF3A0019
S31500000850C0F2000313CB13C213CB13C243F2E473EB
S31500000860C0F200039A681B68002599466B46DE1D98
S315000008704B469246A946002440F200081D00434616
S3150000088033706300F95A534632009B692800984733
S3150000089033782BB90133A3404A461A4393B299469B
S315000008A001340C2CEBD14D4640F22C1005222900C8
S315000008B0C2F2000002F008FB00F01CF95B4618606B
S315000008C0BBE7C04640F22C13C2F20003988870477B
S315000008D043F6300140F2204000B5C0F2000185B079
S315000008E0C2F2000001F0A8F9A0B940F22040C2F21D
S315000008F0000001F0B9F840F2204001A9C2F2000060
S3150000090001F0BEF840F2B413039AC2F200031A6073
S3150000091005B000BD43F2447343F2A47243F258702B
S315000009201121C0F20003C0F20002C0F2000001F083
S31500000930B3FDC04640F2B41310B5C2F20003020084
S3150000094000211868002302F041FB40F2E832002340
S3150000095002F01CFB010040F220400122C2F200001E
S3150000096001F0E0F800B910BD43F2447343F294720B
S3150000097043F258702821C0F20003C0F20002C0F210
S31500000980000001F089FDC046F0B589B06D4643F21E
S31500000990B4732C00C0F20003C4CBC4C4C4CBC4C41B
S315000009A044CB44C44B1E994143F2E4734000C0F269
S315000009B00003CAB2415B18689B68DB69984709B0B7
S315000009C0F0BDC04643F2F07310B5C0F200030BCB86
S315000009D01B68984710BDC04643F2F07310B504007B
S315000009E0C0F2000318689B680A009B6821009847BC
S315000009F010BDC04640F2BC2310B5C2F200031C680D
S31500000A008C4200D90C0040F2BC112200C2F2000157
S31500000A1002F0D4FC200010BD40F2BC230022C2F23A
S31500000A2000031A607047C04670B503790400012BB5
S31500000A301AD0042B00D070BD40F2BC25C2F20005CE
S31500000A402B68FE2BF7D800F055F840F2B81340F2A9
S31500000A50BC12C2F20003A16818602B68C2F2000241
S31500000A60D15401332B60E6E7C046C046C046E2E7F4
S31500000A7040F2B81310B5C2F200031C68041900F066
S31500000A8039F8201A431E1843C00F10BD40F2C02388
S31500000A90C2F200031A6801321A60704740F2285306
S31500000AA040F2E832C2F200031B68B3FBF2F3802285
S31500000AB0013B5204934213D24EF210024EF60051FD
S31500000AC0C020CEF200025360CEF200010B6A00068F
S31500000AD01B021B0A03430B62002393600733136058
S31500000AE04EF60052CEF20002136A1B021B0A136274
S31500000AF07047C04640F2C023C2F200031868704730
S31500000B00030069B140F20012914206D840F2C422B5
S31500000B100020C2F200025A60704700220220FAE763
S31500000B2000220020F7E7C0464B78006A022B19D056
S31500000B3007D823B30B78012B28D00123137000208C
S31500000B407047032BFBD10B78012BF8D14B88012B77
S31500000B5037D0022B2CD0002BF1D18B885A1E934113
S31500000B608372ECE70B78012B14D0022BE7D14B886C
S31500000B70022B2FD017D853B383885380DFE70B7827
S31500000B80013B012BD9D800231370D8E74B88022BE1
S31500000B90F9D9D4E74B88012B16D0022B0BD06BB9B1
S31500000BA0837A5380CBE7042B08D1C3885380C6E7EA
S31500000BB08B888373C3E7837B5380C0E7002353800E
S31500000BC0BDE78B888381BAE783895380B7E7012322
S31500000BD05380B4E703895380B1E7C04600207047CD
S31500000BE070B50400036861B1807B09188DB22900D5
S31500000BF020009847022806D02DB1E27B63689B1837
S31500000C0004E000219847002300256360A581A360C6
S31500000C1070BDC046F8B5436804000E00150003B168
S31500000C2098472000A77F226A0237390023691030CF
S31500000C30984702280ED0E37F6269A783D218A26183
S31500000C4060B9802300205B4233431370A3695D7053
S31500000C508000F8BD00236361A361A3830220F7E748
S31500000C60F0B54E46DE4657464546E0B50400894691
S31500000C7087B0052B59D10B00013BDBB2032B0ED9F4
S31500000C8003220023920013434046FF229043184359
S31500000C9007B0F0BCBB46B246A946A046F0BD43F23B
S31500000CA0D8705D00C0F2000043F2E071285A43F2AA
S31500000CB0D475C0F20001C0F20005C95CEB5C567841
S31500000CC0D5780093937812791B0212022A4355BAFB
S31500000CD03343AEB2B34662B3B0422AD35BBA9BB2D9
S31500000CE080229A4652022BB2D21A924500DD7EE04D
S31500000CF0002204AE7270B2804A4600253170B2718D
S31500000D0003AF019305E03A78A2B90135ADB25D456E
S31500000D101AD253465B1973803A00310020002368CB
S31500000D2098470028EFD0042204E00322FFF772FF61
S31500000D30AEE7032249462000FFF76CFF8307020651
S31500000D4080469B0F920E9DE7009A019B002A53D086
S31500000D500733DD10EDB22000226AA91C1030FFF720
S31500000D603FFF00284CD14A46A36900211A70A369A7
S31500000D705D70002335B1A269D21801339170DAB2E1
S31500000D809542F8D8022340F2000973704B460025BD
S31500000D90A1461C000BE04B4601359B696A009B1877
S31500000DA07A88110A19705A70ACB25C4521D2534642
S31500000DB01B1973804B463A001B683100484698471A
S31500000DC0009B002BE7D04A46E30891690233CA1814
S31500000DD0CB5C072178880C400639A14018B10B433B
S31500000DE013700135E0E78B4313700135DCE702220F
S31500000DF0A0E70022002345E75B465D00EDB2AAE7C7
S31500000E00022200233EE7C046F0B54546DE46574679
S31500000E104E46E0B504000D0087B0052B08D90F2912
S31500000E2065D001217B26507910B1063B98420BD044
S31500000E30032229002000FFF7EDFE07B0F0BCBB46F9
S31500000E40B246A946A046F0BD1379D7781B023B43AC
S31500000E50002BEDD05BBA9BB29846B342E8D85B0054
S31500000E60042902D143460733DB109842E0D1937838
S31500000E7050781B0203435BBA9BB29B4680234046D5
S31500000E805B021B1A9B4500DD93E0012304AE7370E1
S31500000E90931DB5710095002789461D009246317055
S31500000EA0019314E06B782A781B0213435BBA9BB25A
S31500000EB0B38031002000236803AA9847D8B902AB53
S31500000EC01B79FBB90137BFB20235B84521D95B465C
S31500000ED0FB1873804B46042BE4D15246FB080633BD
S31500000EE0D35C07223A40134101221340E0E7042174
S31500000EF040F2B07697E7009D042229002000FFF714
S31500000F0089FE9AE7009D1A0029002000FFF782FE5D
S31500000F1093E74946524640F200090323009D019F8C
S31500000F2040F2070A019573704D460092894610E01B
S31500000F307B783A781B0213435BBA9BB20135B380C8
S31500000F4031002000236803AAADB298470237A845AE
S31500000F500FD95B46EB1873804B46042BE8D1009AF9
S31500000F60EB080633D35C52462A4013410122134054
S31500000F70E4E72000A67F226A053631002369103097
S31500000F80019D984702281AD0E27F6369A6839B18C1
S31500000F90A361C0B95A461D70A369120A5A705A460F
S31500000FA09A704246A369120ADA70424600201A7104
S31500000FB043E7022229002000FFF72CFE3DE700232D
S31500000FC06361A361A383082037E7C046F8B5077BB2
S31500000FD08C461300097877B10024856804E0013453
S31500000FE0A4B20835BC4206D22E788E42F7D16246AC
S31500000FF06C68A04702E00122FFF70CFEF8BDC04670
S31500001000F0B5D64646464F468846191F8246C0B5B5
S31500001010FC2900D96EE011784FF6FF778946991EB4
S3150000102089B28C46012000213A4E0825545C67405F
S3150000103004003C4064427F083440013D7C40EDB2F0
S31500001040A7B2002DF4D101318CB26445EDD3D1188D
S31500001050023908784978090201438F4241D149464D
S3150000106011B12D20C84540D140F203115046033B33
S31500001070DBB2C183511C1A00FFF7A8FF03068207E3
S315000010809B0E92BB8BBB53469B8B43B34A46002AAF
S3150000109032D0524656691A1F0420FC2A25D84246E9
S315000010A0023BF7189BB232709C4600254FF6FF7242
S315000010B0012418480821735D5A40230013405B42FF
S315000010C00340520801395A40C9B292B20029F4D1FC
S315000010D00135ABB29C45EDD83A70120A7A70002001
S315000010E003E00820012380001843E0BCBA46B1465D
S315000010F0A846F0BD0120F5E7534650461A6A00217E
S315000011001B691030984753464A4600205A619A6137
S315000011109A83EAE701A0FFFF40F2C43340F20002DF
S31500001120C2F20003C2F200029A6003221A7340F66A
S315000011302932C0F200021A6040F6DD32C0F2000227
S315000011405A6040F60132C0F200021A6100225A616A
S315000011509A61DA611A62704770B5C0B0FF22002149
S315000011600500684602F01EFAFF216846FFF742FCBA
S31500001170040008B940B070BD0A20FFF779FC0028CA
S31500001180F8D040F2C436C2F20006E3B26A46012144
S3150000119030003562FFF734FF030680079B0E38B92F
S315000011A033B9B18B7069FFF717FCFFF735FCE1E740
S315000011B0FFF732FCDEE7C04600B585B010220021FD
S315000011C0684602F0EFF9FFF769FCFFF71BFBFFF734
S315000011D0F9FBFFF77DFBFFF72BFA6846FFF794F95B
S315000011E0FFF7D8FAFFF716FBFFF770FA6846FFF726
S315000011F095F930BFF4E7C04610B538B94CF2000394
S3150000120090220121C4F27E03995410BD0228FCD11C
S3150000121043F6C40140F2E830C0F20001C2F2000019
S3150000122000F0C6FBF1E7C04610B5FFF7C5FF00208A
S3150000123010BDC04641618261002070477B2330B5F6
S31500001240046AA5782B40A370802483789B079B0FA4
S31500001250D21A0261CB18026AC36093782343937053
S31500001260032382781340022B04D0036A0A78DA70CB
S31500001270002030BD0B884FF60061026A0B43D38114
S31500001280F6E7C0464162C262836200207047C046EC
S315000012900B2370B5026A7B24957803262B40937046
S315000012A00023C3608A78036A2C405A701A784D78F6
S315000012B0B24335402A431A70CA7859369A74DD7992
S315000012C00A78B54332402A43DA71036A00209C70DB
S315000012D070BDC04601235B4200204B600B60704727
S315000012E0030010B506208A0707D57B22186A847882
S315000012F022408270002200201A61C90702D500220E
S3150000130000209A6110BDC04683690B60002383618B
S3150000131000207047F0B5C64600B50500806A84B067
S315000013208C4690466C46D8B12300060086CE86C30E
S3150000133036681E60EB691B7803606346836043462C
S315000013400371EB6AC3606B6A9847AB6A23B123CC1F
S3150000135023C31A002368136004B080BCB846F0BDEE
S315000013602000E7E7002310B5026A4360937004008B
S31500001370C3690520185601F041F90B20E369185698
S3150000138001F03CF90720E369185601F037F9092006
S31500001390E369185601F032F9EFF31081012383F364
S315000013A01088E36946F6FC721C7880231B06E3402E
S315000013B0C4F20402506803435360536881F31088F3
S315000013C0002010BD43F60002F0B5C646C0F200226A
S315000013D09446002600B50B78067063445B01C16134
S315000013E003624B690D0043628B6903210122C362CC
S315000013F0837886628B43134383706A780B27534244
S315000014005A41837801328B4313438370AB7A0400CD
S315000014109846EF57380001F0F1F8380001F098F8D7
S31500001420380005272200414601F0A0F82B79EF5736
S315000014309846380001F0E2F8380001F089F83800E3
S3150000144007272200414601F091F8AB79EF579846FD
S31500001450380001F0D3F8380001F07AF8380009278F
S315000014602200414601F082F82B7AEF579846380061
S3150000147001F0C4F8380001F06BF82200414638004C
S3150000148001F074F8EFF31087012080F3108846F618
S31500001490FC732978C4F204038C465A68802190466E
S315000014A062460906D14042468A435A605B6887F322
S315000014B01088236A9E70236A1E71236A5E72236AED
S315000014C09E72236ADE72236A5E8340F20F232A78B5
S315000014D0D340184202D04022236ADA740622236AD5
S315000014E01A772B7813B9236A3F4A9A82AB78EA783F
S315000014F01B01D20013436A78032A00D16FE05142E0
S315000015004A410F2152428A43F232216ADBB20B7002
S31500001510236AFF269A710223EA69206A117B490031
S315000015200B402021437390785378400101400020FE
S31500001530DB0133400B43216A087211780239012915
S3150000154042D90326216ADBB2CB715268216A9378AD
S315000015504B700B785078B343304003430B70D3780D
S3150000156059368B74C8791378B04333400343CB7133
S3150000157000230520E36023616361A361EE69033301
S3150000158035781D40E369185601F016F80B20E3691B
S31500001590185601F011F80720E369185601F00CF807
S315000015A00920E369185601F007F87023226A2B43D5
S315000015B0937073890020238144F65513C5F2433393
S315000015C0636080BCB846F0BD216A4E701278022A6C
S315000015D001D10E321343226ADBB2D371C8E73D3222
S315000015E01343B23291E7C04600F8FFFF10B5EFF3A0
S315000015F00384103C64B2200000F0AAFF40F29C4332
S31500001600A400C2F20003E058C3691B699BB10369D9
S3150000161003B110BD026A7F2391780B4004210B436E
S3150000162093700023C360436A002BF2D0802200210E
S31500001630FFF770FEEDE70369026A002BEBD0032388
S315000016408478C1682340022B0BD00B78D370827844
S315000016500369C1689207920F9B1A8A180361C260D8
S31500001660D6E70B884FF600610B43D381EFE7C04600
S3150000167010B582B0EFF30384103C64B2200000F092
S3150000168067FF40F29C43A400C2F20003E458032320
S31500001690A2781340022B0DD0236A5979A369C9B2E7
S315000016A0019183B9636A1BB104222000FFF732FE61
S315000016B002B010BD40F2FF11236A1B8A1940A369CC
S315000016C00191002BEED09207920F606901A901F0FB
S315000016D075FEA37862699B079B0FD2186261A269A7
S315000016E0D31AA361002BE3D1636A002BE0D0012259
S315000016F000212000FFF70EFEDAE7C04610B5EFF333
S31500001700038440F29C43103C64B2C2F20003A20080
S31500001710D0587B23026A91780B409370436A1BB1C1
S3150000172002220021FFF7F6FD200000F011FF10BD98
S3150000173070B5EFF3038440F29C43103C64B2C2F2EE
S315000017400003A200D058032382781340022B19D03D
S31500001750036A5979C9B238221D792A40ED0602D5A5
S315000017601D7FED070BD538261D79B5431D71436ADC
S315000017700BB1FFF7CFFD200000F0EAFE70BD40255B
S315000017802A43F0E740F2FF11036A1A8A1140E2E7A2
S315000017900023036000207047FF2010B540F60004C8
S315000017A00B0A084019010918C4F2040489000B59F0
S315000017B000209B07DB0F137010BDC0460023C4F248
S315000017C004039C46090A490161444B6800201380C2
S315000017D07047C0460020C4F2040084461800090A77
S315000017E090430004134049010343614400208B6089
S315000017F07047C046FF2301200B4098404FF6FF7309
S31500001800034002B91B040022C4F204029446090AEA
S315000018104901614400208B607047C0460020C4F235
S3150000182004008446180010B5090A490161440C6891
S3150000183010402043934398430860002010BDC046E3
S315000018400023C4F204039C46090A490161444B681B
S3150000185000201B0C138070470020C4F2040084464D
S315000018600B0A5B0163445868FF231940FE3B8B401B
S31500001870000C99B203405B1A59424B410020137089
S315000018807047C0460020C4F2040084461800090AC6
S315000018909043000413404901034361440020CB6098
S315000018A07047C0460020C4F204008446FF200B0A9D
S315000018B008400121814010B55B016344DC680804DF
S315000018C0012A04D08C4304430020DC6010BD84430D
S315000018D00C43F9E7F0B5DE4657464E464546E0B5B9
S315000018E0EFF31082012383F3108840F2984BC2F283
S315000018F0000B5B461B6833B940F60051C4F2040185
S31500001900CB704033CB705B4659461B6801330B6086
S3150000191082F31088038800224BB380235B0299462A
S31500001920224B40F6000440F2FF0C9846C4F2040431
S315000019304368D1005B1861469F881E683B0A0F40CA
S3150000194049461B010E420AD0D91989008A464546E6
S315000019500959294055462951414631402951DB193B
S315000019609B001E510132018893B29942E0D8EFF3F1
S315000019701082012383F310885B461B6823B15B4604
S3150000198059461B68013B0B605B461B6833B940F642
S315000019900051C4F20401CB708033CB7082F31088FF
S315000019A0F0BCBB46B246A946A046F0BDFFFFFEFF0F
S315000019B045F2542310B5C5F24F0303600800FFF744
S315000019C089FF002010BDC04610B50800FFF782FF52
S315000019D0002010BDF0B5EFF31084012383F31088C7
S315000019E040F29843C2F20003186830B940F6005539
S315000019F0C4F20405E8704030E870186801301860D9
S31500001A0084F31088FF27080A0F400001D1030BD585
S31500001A1040F60004C119C4F2040489000E59114DA0
S31500001A202E4015400E510D5140F60001C019C4F26A
S31500001A30040180004250EFF31082012181F31088E7
S31500001A40196811B11968013919601B6833B940F674
S31500001A500051C4F20401CB708033CB7082F310883E
S31500001A600020F0BDFFFFFEFF8368C26800205A60B9
S31500001A707047C04610B5002801DB00F0D1FD10BD4F
S31500001A804EF2000230B58368C4F201025B6E013388
S31500001A908B6083680720DB6A156A40F22852C2F21F
S31500001AA0000212682C0E0440A2402840C2405B018E
S31500001AB05B0F5B00DBB2DA40012300204A600B704B
S31500001AC030BDC04670B5554255418C6E013425B9BE
S31500001AD0A24202D2013A1A6070BD049D496BED071D
S31500001AE00CD50078C902C90E03280CD901200909B2
S31500001AF0884382B180B903225A60EDE70078C906AF
S31500001B00C90E0328F2D80C2001400439484241414D
S31500001B10C8B2002AEED110B902225A60DCE7002CC6
S31500001B20FAD0E8E70323F0B5D6464F4646461340BB
S31500001B301400012299460023C0B5866884B052423B
S31500001B400292039307000A00406802AB8A4600949B
S31500001B503100FFF7B7FF336B039A984692B902201C
S31500001B602307DB17034002990233204227D01800CF
S31500001B701230800030184160B86813339B00C318D8
S31500001B805960BE68630623D58023316CDB030B43A3
S31500001B9033644B46012B2FD04146254BBE68194076
S31500001BA00B001104194388464B46F3B943460020FF
S31500001BB0336304B0E0BCBA46B146A846F0BD4B4418
S31500001BC01D001235AD0075196960BE686306DBD469
S31500001BD04B46012B28D04146154B19400B001104EA
S31500001BE019438846022CDFD172B9434611491206C1
S31500001BF00B401A439046D9E743460E4912060B405E
S31500001C001A439046BE68D1E70123524631007868F0
S31500001C10009302ABFFF756FF4346039A05491206A7
S31500001C200B401A439046C1E7022CDED1DCE7C046E2
S31500001C30FFFFFCFFFFFFFFFCF0B5CE46474680B531
S31500001C400D000B7C01210A009A400F231340C2604D
S31500001C505A42534140F28072C0F24002944600223A
S31500001C60456003742B7C040063441B0283606B692C
S31500001C7085B04361AB698261C361EE69EFF3108899
S31500001C8081F310882B7C46F6FC719C460323634542
S31500001C909B4140F21F0C6046C4F20401CF688343A7
S31500001CA0213B3B40CB60CB6888F310884AF2005159
S31500001CB0A3681960A368DA62A368DA63A3689A6402
S31500001CC02B7A6A6829785B081B06013A032902D138
S31500001CD0802149020B43A168CB628023A1681B06C1
S31500001CE00B61A1684B61A1688B610023A1684B62FF
S31500001CF0A1688B62A168B069C861A168F0690862D1
S31500001D00A16801208A66A16840424A6600212A78B5
S31500001D1002900391B76B002A00D0A2E0A26840F2BD
S31500001D200109904603216B685B08013B029340461C
S31500001D304365A06883652878032803D9A068C3652E
S31500001D40A0680366B36B13BB3378E3B12A78737864
S31500001D5090469A01944642461801022A00D1B6E0FE
S31500001D60032A00D1B7E01A005342534140F2020859
S31500001D7042465B429343093362463B4340F20017B7
S31500001D80134303431F43B378002B00D07EE040F299
S31500001D90300C6368D8696346C35CDA0707D5A36865
S31500001DA098464246836A013BD3646346C35C9B07FD
S31500001DB005D5A3689C466246C36A013B13650023AA
S31500001DC0A0688363A0688446882062461350B36B7C
S31500001DD03BB920336738F35C305C5B034007034351
S31500001DE01F433023AA22F35CD203581E83410020EE
S31500001DF09446CFF6FB705B420340A06863440364DD
S31500001E002B78012B04D10023A068C364A068036566
S31500001E104A461220A3685F63A3681963A3681A631E
S31500001E20A368E268DA60697C22002856FFF722FE82
S31500001E302223F15C0233F0562200FFF71BFE232318
S31500001E40F15C0233F0562200FFF714FE45F254030C
S31500001E500020C0F24703236005B0C0BCB946B046B7
S31500001E60F0BDA1688846012A2BD0EA686068009315
S31500001E7002ABFFF727FE039901200A0409060A436D
S31500001E800321114302439146029B50E72A78F378D7
S31500001E90944618019A0110436246022A19D0032A71
S31500001EA01BD01A005342534140F2020C62465B4279
S31500001EB09343093303431B043B4380277F041F439B
S31500001EC065E7012340F2010903215B422FE709235D
S31500001ED052E70923EEE703234EE70323EAE7C0466A
S31500001EE00368828A00201A807047C0460368103152
S31500001EF04900CB5A002013807047C04670B5C569AB
S31500001F0004000E0088B0A5B120222900684601F021
S31500001F1055FA20223100280001F050FA2800A36962
S31500001F209847E06918B12022694601F047FA08B0DF
S31500001F3070BD0D00F2E7C046F0B5DE4657464E4688
S31500001F4045460400E0B5636808685B694A68844EE4
S31500001F509B468B68304032403340266887B2B78054
S31500001F60266897B2B78226689FB237812668070C23
S31500001F70F7802668120CF28222681B0C53814EF2FF
S31500001F80000340F22852C4F201031F6A0723C2F27B
S31500001F90000212683E0E1E40B2403B40DA4040F25C
S31500001FA0E833B2FBF3F241F28833534344F2402262
S31500001FB0C0F20F02B3FBF2F301330D0083B0072B1F
S31500001FC000D207236A682F6817438022920591463C
S31500001FD03A0049460A400F420ED0226840F2DE0C13
S31500001FE0904666464146DAB28A554946AA680A408C
S31500001FF0561EB2410132FF328026F60537420AD01C
S31500002000DF272168DBB2CB55AB68334200D199E0BC
S3150000201040F202231A43236892B25A82EB68002BDD
S3150000202000D199E01A891600170552D5902627681F
S31500002030BA53598927680C36B953998927680236E5
S31500002040B953196894278A4621688C46514689B245
S31500002050884661464646CE53216840F2960C89462C
S3150000206051460F0C3F49664688460F4049468F53F6
S31500002070216840F2920C894651464E0F032167466D
S315000020800E404946CE5521685E68894669460196E6
S31500002090898840F2980C8A46674649465646CE538A
S315000020A0216889460199090C8C46414666463140AD
S315000020B08C4640F29A086746494646468F53216841
S315000020C003278C4601994E0F3740614693268F555C
S315000020D01E89B60527D490232668F25222682E8AD6
S315000020E0103BD6525B461B7973B11F2327683E8887
S315000020F09E43002832D000F02BFF1F36301A80B2E4
S315000021003880A38A1843A08244F243430020C5F2D4
S315000021104123E3602B68236103B0F0BCBB46B246A3
S31500002120A946A046F0BDDF7C9E7C21683E43A627DB
S31500002130CE55A8262768D989B9531F8AAA232668A7
S31500002140F752C8E740F200231A43236892B25A8234
S31500002150EB68002B00D065E70022BCE72020CCE727
S31500002160FFFFFF9FFF9FFFFF30B5040089B0EFF32D
S31500002170038340F29C42103B5BB2C2F200029B001A
S315000021809D58EFF30380103840B200F0E1F96B463A
S315000021906A469C706B681B881380002313722B6A37
S315000021A00193AB691BB169462800FFF7A7FE09B08A
S315000021B030BDC046F0B557464E464546DE464CF263
S315000021C00002E0B54F694160CB68C4F20502836145
S315000021D00B69944603620023C3610B880D005B0202
S315000021E0634403604E698B78B178040085B05B0365
S315000021F0002900D085E040F24032134372799207FD
S3150000220002D540F2004213433279002A00D17CE025
S315000022108022134343F600719BB2A382B278F07812
S31500002220120211403F220240114301912A7970782F
S31500002230D20340010243029232780392EFF3108AEE
S3150000224040F2010C8CF3108846F6FC70C4F20400D0
S31500002250C26840F2100990462A8893464A46594673
S31500002260521A9146624649468A409446424661461B
S315000022708A43C260C0688AF3108847F6FF506A46F0
S31500002280216803400B80236891881289198223688C
S31500002290DA812368039A1A7373799A073CD48A22DF
S315000022A0062021688B542856002803DB2200697A11
S315000022B000F0B6F907202856002803DB2200A97A89
S315000022C000F0AEF907203856002803DB2200797AA1
S315000022D000F0A6F908203856002803DB2200B97A58
S315000022E000F09EF90023236144F243430020C5F227
S315000022F04123A36005B0F0BCBB46B246A946A04642
S31500002300F0BD40F24022134378E73F2900D081E731
S3150000231048F2000213437DE7032221681343873204
S315000023208B540120012100F0BDF87379B7E7C04650
S3150000233010B50020FFF718FF10BDC0464EF200038F
S31500002340262240F27C01C4F20103985C1B6A8000DD
S31500002350C2F2000141585B015B0F40F22852D9409E
S31500002360C2F20002116070474EF2000340F2FE32E4
S315000023704249C4F2010330B599524CF200020021E1
S3150000238043F6C870C4F27E02115440F27C0046F651
S315000023900042C2F20000C0F2DC22026041F20022DA
S315000023A0C0F27A02426048F20002826042F60052AF
S315000023B0C0F23112C260262201619D5C1A6AAD002C
S315000023C045595201520F40F22854D54040F213426B
S315000023D0C2F2000425609954A2220931995440F2B0
S315000023E0804208399954A0229A5CCAB136229A5C76
S315000023F01AB93B315A5CD207FCD54EF20002A02135
S31500002400C4F20102535CDB06DD0F002BFADB5554E8
S315000024104EF20002A021C4F20102535CDB06FCD49A
S315000024204EF2000200213623C4F20102D1543C319F
S31500002430535CDB07FCD501213123D1544FF6C4731D
S31500002440C4F27E03197040F2001300251362DA3BD2
S31500002450D554D55C136AAD0040595B015B0FD8407B
S3150000246040F2FE3320600648D0524CF2000343F699
S31500002470C872C4F27E03995430BDC04603A5FFFF5F
S3150000248000A5FFFF44F2000328220021C4F2040342
S31500002490995470477047C04600BEFEE701380028D1
S315000024A0FCD1704740F228524CF6002370B54143E8
S315000024B0C2F200021468C3F69A330D00B3FBF4F4BB
S315000024C0080040F2E8320023002100F07FFD31B918
S315000024D0B0FBF4F0800808B1FFF7E0FF70BDA00084
S315000024E0B5FBF0F040F2E8320023002100F06EFD6B
S315000024F00029F0D001204042FFF7D0FFEEE7C046AA
S3150000250046F2000340F2201270B500240126C4F200
S3150000251000039D5A20329B5A1D402B00E3401E4269
S315000025200AD040F26442C2F200029446A300634419
S315000025301B680BB1E0B2984701340D2CEDD146F281
S31500002540000340F23012C4F200039D5270BDC04633
S3150000255046F20003C0308000C4F20003C2580249AC
S315000025600A40C250C3587047FFFFFEFFF0B5C6468B
S3150000257090464EF20012FF240325CEF20002944646
S31500002580220040F200370540ED008901AA400C40C8
S31500002590AC4083089B0000B56344DE598000964337
S315000025A02643DE5140F29C434246C2F200031A50D3
S315000025B080BCB846F0BDC046030046F2000210B526
S315000025C0C033C4F200029B0099580B4C214099502D
S315000025D09B58BFF35F8F1F220123024093404EF2A8
S315000025E00012CEF20002944640F2801240098000AA
S315000025F060448350036010BDFFFFFEFF1F210122D0
S3150000260001408A404EF2001143092033CEF2000108
S315000026109B005A50BFF34F8FBFF36F8F7047C04672
S31500002620F0B5C64690464EF20012FF240325CEF2C0
S3150000263000029446220040F200370540ED00890171
S31500002640AA400C40AC4083089B0000B56344DE59A9
S31500002650810096432643DE5140F29C434246C2F235
S3150000266000035A50030046F20002C033C4F20002CF
S315000026709B0099580C4C214099509B58BFF35F8F93
S315000026801F220123024093404EF20012CEF20002B6
S31500002690944640F2801240098000604483500360F3
S315000026A080BCB846F0BDC046FFFFFEFF46F2000004
S315000026B00023C4F2000043F6F012C0F200029A189A
S315000026C012781AB11900C03189000A500133202B43
S315000026D0F1D1704730B5EFF31081012383F31088F1
S315000026E040F21C534000C2F200031A5A1AB11A5A99
S315000026F0013A92B21A521B5A83B94EF2000243F6BD
S31500002700682340F2FE34C4F20102C0F20003155BF6
S31500002710185A044B2B4383439BB2135381F31088FF
S3150000272030BDC04600A5FFFF70B5EFF31081012351
S3150000273083F3108840F21C524000C2F20002135A82
S3150000274083B94EF2000443F6682540F2FE36C4F221
S315000027500104C0F20005A35B2D5A2B434AF2005533
S315000027602B43A353135A01339BB2135281F31088A0
S3150000277070BDC04640F2245210B5C2F200020300FA
S31500002780106858B1032103338B4340F66021C31808
S31500002790C2F200018B4207D8136010BD40F2786088
S315000027A0C2F200001060EDE700F0E8FE0C230360C3
S315000027B001204042F1E7C04600BE704710B500F068
S315000027C003F8FEF731FDFEE7F0B54EF6005340F292
S315000027D00005CEF20003C0F2000583B09D60002024
S315000027E0FEF70AFDFFF7C0FD6B460027DC1D2770CC
S315000027F001202378FFF798FFEFF31081012686F377
S31500002800108846F6FC73C4F204039A683C480240FA
S315000028109A609A6881F3108840F60001C4F20401B8
S315000028200A68D207D20F22700A68D207D20F227026
S315000028300A68D207D20F2270EFF3108186F3108850
S3150000284080229868520502439A609B6881F310883B
S315000028500120FFF73FFF0120FEF7CEFC40F60053B4
S31500002860284AC4F200039F801A802A68264941F24A
S31500002870000051189960DA6046F2000240F2201119
S31500002880C4F20002505240F2746240F29000C2F26A
S315000028900002C2F200009E800021121A00F082FEA1
S315000028A040F2000040F27C0243F67421C2F20000BE
S315000028B0C2F20002121AC0F2000100F07FFD40F2DF
S315000028C0740540F27803C2F20005C2F200035B1BF6
S315000028D09E10002B05DD002408CD01349847A64242
S315000028E0FADCFFF72BFDFFF7CDFD0220FEF784FC97
S315000028F0FFF7DCFE0020FFF7CDFD03B0F0BDC046BC
S31500002900FFFFFFEF00A5FFFF00F8FFFF009A1B6A1D
S315000029105100521892009B1802229A727047C046C4
S31500002920F8B54746CE4680B5868A80460F00914662
S315000029308EB10023046904E001339BB20434B34230
S3150000294009D02568BD42F7D14A4613800020C0BC95
S31500002950B946B046F8BD4346DB8AB3420FD04B4674
S315000029601E804346DB8AB342F0D043461B69B6005D
S31500002970F750434642469B8A01339382E6E7434635
S31500002980DB6A8BB14FF6FF7296420DD04246013696
S315000029901069B100984748B1434642461861DB8A40
S315000029A0968A0133D382DAE70320D0E70220CEE706
S315000029B0F8B54746CE4680B5868B80460F009146D1
S315000029C08EB10023846904E001339BB20434B34220
S315000029D009D02568BD42F7D14A4613800020C0BC05
S315000029E0B946B046F8BD4346DB8BB3420FD04B46E3
S315000029F01E804346DB8BB342F0D043469B69B6004C
S31500002A00F750434642469B8B01339383E6E74346A2
S31500002A10DB6A8BB14FF6FF7296420DD04246013605
S31500002A209069B100984748B1434642469861DB8BAE
S31500002A30968B0133D383DAE70320D0E70220CEE773
S31500002A40F0B54F464646D646C0B504001500C288C6
S31500002A5080880E001F0086B0904213D1E36A002BD7
S31500002A6000D1CAE04FF6FF72904200D1C5E00130B6
S31500002A70010120689847002800D1D9E0E38820604A
S31500002A800133E38000236A46390020001380FFF7F4
S31500002A9047FF28B106B0E0BCBA46B146A846F0BD2D
S31500002AA06A460E99508020000232FFF781FF002807
S31500002AB0F0D10F9B02AF7B606B461B8802967B8131
S31500002AC06B465B883D81BB81032D00D892E00F9B4E
S31500002AD0002B00D1ACE031002A000F9800F06EFC0C
S31500002AE0A688E3889E4200D189E033B29A462368DD
S31500002AF032019B1823CF23C33A681A60A388013397
S31500002B00A380109B002B70D023682169984633015F
S31500002B1043445A8942F60D1392005258C0F20003FC
S31500002B209A4265D0A089002800D1ABE0A5680023B1
S31500002B302A0005E001339BB20432984200D179E0C5
S31500002B401168109FB942F5D11BB29946A58CE38C4A
S31500002B509D4213D1E36A002B4FD04FF6FF72954288
S31500002B604BD0013569004919206A89009847002829
S31500002B705ED0E38CA58C01332062E3846A46002391
S31500002B8042F60D119380200001AAC0F20001FFF762
S31500002B90C7FE002800D07DE76A4629B2D080200013
S31500002BA00632FFF705FF0300002800D072E7524601
S31500002BB017016A46928847447D897A816A46D28897
S31500002BC0B889BA81A28CE18C91420ED05100891845
S31500002BD0226A8900521813604B4693800023D580E1
S31500002BE010819372A38C0133A38434230122E2540F
S31500002BF0F0B24FE703AB0F936DE703204AE7E36AB2
S31500002C00002BFAD04FF6FF729642F6D001362068B6
S31500002C103101984760B1E3880421625E0133A688DA
S31500002C209BB292462060E380B34200D169E75EE73B
S31500002C3002202FE7E389984208D003B29946109BF9
S31500002C4080002B50A3890133A3817FE7E26A002A23
S31500002C50D3D04FF6FF718B42CFD0013399B2280003
S31500002C608900904705000028E2D0E3890C21625EC6
S31500002C70A0600133A0899BB29146E381834200D1D3
S31500002C8064E7DCE7E3891BB140F20009A568D6E7F3
S31500002C90E26A002AB1D0A568DFE7C04682B17BB1FF
S31500002CA003630023C262036043600361436183617F
S31500002CB0C3618360C3600362436281620020704720
S31500002CC00120FCE7F0B506000F0014001D0085B0DA
S31500002CD0032A11D9C36A11000020984770B1002356
S31500002CE002930A9B0190009322002B0039003000CA
S31500002CF0FFF7A6FE05B0F0BD0020F0E70220F9E7D9
S31500002D00F0B5CE46474680B5838804000E0083B0F2
S31500002D10994230DA00292EDB0B01984605684544B6
S31500002D202A892F1D032A00D96F68AB89A1699B00E8
S31500002D3058586B8921699B005B5842F60D119946DC
S31500002D40C0F200012300894500D0A36A29680090DB
S31500002D503800C8473423E35C93B1A3889E420ADA5D
S31500002D60256845442A892F1D032A00D96F68380033
S31500002D70296800F023FB03B0C0BCB946B046F0BDDD
S31500002D8038002A89296800F019FBF4E7F0B5DE4619
S31500002D904E46454657460023E0B585B0039102935B
S31500002DA083880500994640F2340B5B460022EA54BC
S31500002DB04B46ABB342F60D180026C0F2000805E0FC
S31500002DC0C24538D00136B3B2994525D92C683701AA
S31500002DD0E4192289211D032A00D9616863892869BB
S31500002DE09B001B5820689A4600F0CEFB0028E7D0CF
S31500002DF0280031B2FFF784FFC24519D0029B013388
S31500002E009BB202935B46EB5C002B4ED1AB8801363E
S31500002E109946B3B29945D9D85B46EB5C002BC4D131
S31500002E20029805B0F0BCBB46B246A946A046F0BD26
S31500002E305B46EB5CCBBBA389AA699B009B582C6ABB
S31500002E405A009B189B00E418A37A022B05D0012B8D
S31500002E50D8D12368039A9B1A04E0013BA372039B13
S31500002E6023600023A288A968920052589B18002B61
S31500002E70C8DC29682389AA69C9199B009B580A8955
S31500002E809C46081D032A00D94868AB6AE7889A461B
S31500002E902B6909689946634600934B46BF00FF5865
S31500002EA05346B8470023A372A8E7AB8899467CE748
S31500002EB070B500250400456080220021083000F02E
S31500002EC071FB256070BDC046F0B54E464546DE46F0
S31500002ED05746E0B505008B469046002340F20009B0
S31500002EE0012640F2000C083505E062462A600133EF
S31500002EF00435202B25D05F463200DF403A4092460B
S31500002F00026831001400DC40B9433440A142ECD1E0
S31500002F102F68444607B17C1E2C60002CE7D1340094
S31500002F2051469C409940A2430A4302604A4647687C
S31500002F302243A7430F430133914647600435202BB4
S31500002F40D9D14846F0BCBB46B246A946A046F0BD1C
S31500002F501C2101231B04984201D3000C10391B0AC3
S31500002F60984201D3000A08391B09984201D3000987
S31500002F70043902A2105C40187047C04604030202DE
S31500002F80010101010000000000000000002B11D12A
S31500002F90002A0FD1002900D1002802D00021C94300
S31500002FA0080007B4024802A14018029003BDC046BB
S31500002FB00904000003B4684601B5029800F034F82D
S31500002FC0019B9E4602B00CBC7047C046F0B54FF65A
S31500002FD0FF750400CE462C40474615400E002900DA
S31500002FE0994680B5130C0700000C614345435843CE
S31500002FF063430C0C5B19E4188C46A54203D9802365
S315000030005B0298464044230C61461B184FF6FF703E
S315000030100840494656437943240489192018C9189B
S31500003020C0BCB946B046F0BDF8B557464546DE4683
S315000030304E460C00E0B5924605009B4617008146B9
S315000030408846002B52D11000FFF782FF0500A742E9
S3150000305000D871E060B1202349461B1A2200D940EE
S3150000306082400B00134398464B468340874099465F
S315000030703C0CB8FBF4F24FF6FF70130038404343A4
S3150000308021009C4643465143591A4B4609041B0CE2
S315000030900B439C4509D9DB19511E9F4200D967E1B4
S315000030A09C4500D864E1023ADB1961465B1AB3FB22
S315000030B0F4F14C434E461B1B4FF6FF7448431B046A
S315000030C034401C43A04200D9FCE0241A10040843F3
S315000030D000210A9B23B1EC401C6000230A9A53602E
S315000030E0F0BCBB46B246A946A046F8BD8B4207D9FE
S315000030F00A9B13B10A9B1860596000210020EFE774
S315000031001800FFF725FF0100002855D1A34502D37B
S31500003110AA4500D94AE15346EB1A5A469D42AD41AB
S31500003120A41A6D42621B904601200A9A002AD7D043
S31500003130136043465360D3E7002800D0CBE04FF638
S31500003140FF703B0C98460121E41B3840B4FBF8F3B2
S3150000315002005A43944642465A43A41A4A46240455
S31500003160120C2243944507D9D2195C1E974202D805
S31500003170944500D91DE123006446121BB2FBF8FCFE
S31500003180644666466043444674434E46121B4FF6F9
S31500003190FF74120434401443A04208D96246E4196D
S315000031A0013AA74202D8A04200D9F9E09446241A6F
S315000031B01804634618438CE720275B4652463F1A9D
S315000031C08340FA401A435346944683402A009A465F
S315000031D0FA40230084402243854091466246FB40E4
S315000031E0A846150CB3FBF5F04FF6FF741440020029
S315000031F0624393462A0042439A1A4B4612041B0C1A
S3150000320013439B4509D96344421E9C4500D9C5E03A
S315000032109B4500D8C2E0023863445A469B1AB3FB6A
S31500003220F5F255434E465D1B4FF6FF7354432D048E
S3150000323033402B439C4209D96344551E9C4500D913
S31500003240A8E09C4200D8A5E0023A6344000410437B
S315000032504FF6FF721B1B14000440A34654465E46FD
S3150000326022405643B1465E46050C240C6A4365432C
S3150000327074434E46360CB346A4185C44A24203D9A6
S315000032808022520293465D44220C4E4652194FF656
S31500003290FF7524043540641993426FD36CD00A9DA0
S315000032A075B145462C1BA045AD419B1A6D425B1B73
S315000032B01A00CC40BA40CB400A9922430A604B60C0
S315000032C000210DE7E4194B1EA74253D8A04251D95D
S315000032D00239E419F9E620224946121A2300D140A0
S315000032E0D3400A004946874081408946390C8440CC
S315000032F08846B3FBF1F14FF6FF7022430C003840CD
S315000033004443A44644464C431C1B2404130C234349
S315000033109C4507D9DB194C1E9F423DD89C453BD99D
S315000033200239DB1964461B1BB3FBF8FC9B46464679
S3150000333063465E434FF6FF7A33005E466446F31AF1
S31500003340564644431B04164033439C420BD96246FF
S31500003350DB19013A9F421BD89C4219D902225242DC
S315000033609246DB19D4441C1B634609041943EDE657
S315000033700A009AE61900A8E6A04590D25546651BB4
S31500003380AC42A44164426444121B01382C0086E717
S315000033909446E8E72A0059E72100C3E710003CE716
S315000033A0022252429046E419C44400E700202B0052
S315000033B0BBE6023BD219DFE67047C046002310B5D4
S315000033C09A4200D110BDCC5CC4540133F8E7FFFF2C
S315000033D010B5034B0100186800F01AF910BDC0467D
S315000033E02400002070B50F4E0D003168040011B99D
S315000033F000F0B4F830602900200000F0AFF8431C5C
S3150000340003D101256D42280070BD0323C51C9D43D1
S31500003410A842F8D0291A200000F0A0F80130F2D115
S31500003420EFE7C0462C050020F7B50322CB1C9343DB
S31500003430083305001F000C2B34D20C27B94233D8B1
S31500003440384E280000F070F833681C00002C2FD18D
S3150000345039002800FFF7C6FF0400431C5FD134681B
S315000034600094009B002B4AD1002C52D023682800E0
S31500003470E3180099019300F071F8019B834248D14B
S3150000348023682800FF1A3900FFF7ACFF013040D04F
S315000034902368DB19236033685A68002A33D1009BFE
S315000034A0336019E0002BC9DA0C232B600020FEBD27
S315000034B02168C91B20D40B290AD9E2192760A34227
S315000034C004D1326063681160536005E05A60F9E721
S315000034D06268A3420ED13260280000F02DF8200069
S315000034E007220B30231D9043C21A9842DFD01B1AC5
S315000034F0A350DCE75A60EFE723006468A6E7009C68
S3150000350063680093ADE71A005B68A342FBD1002312
S31500003510DAE70C2328002B6000F00EF8C6E70760F8
S31500003520DAE7C0463005002010B5024800F0B8F8CA
S3150000353010BDC0466C06002010B5024800F0B1F878
S3150000354010BDC0466C06002010B5034B0A000100F2
S31500003550186800F02FF810BD24000020002370B575
S31500003560054D040008002B60FFF704F9431C02D147
S315000035702B6803B1236070BD70060020014B1868EC
S315000035807047C0462400002030B500240139A2420D
S3150000359001D1002005E0035D01340D5DAB42F6D09C
S315000035A0581B30BD03008218934200D17047197032
S315000035B00133F9E7F7B506000C00150029B911002B
S315000035C0FFF732FF04002000FEBD1AB900F020F814
S315000035D02C00F8E700F066F80700854202D8430899
S315000035E0AB42F0D329003000FFF71EFF019008B967
S315000035F0019CE8E72A00BD4200D93A002100019863
S31500003600FFF7DCFE2100300000F002F8F0E7FFFFD4
S3150000361070B505000C0079B1043C2368002B00DA74
S31500003620E4182800FFF780FF1C4A13682BB9636073
S3150000363014602800FFF780FF70BDA34208D92068F8
S3150000364021188B42F3D119685B6809182160EEE7EF
S315000036501A005B680BB1A342FAD911685018A04250
S315000036600BD120680918501811608342E1D11868FF
S315000036705B68411811605360DBE7A04202D90C2356
S315000036802B60D6E7206821188B4203D119685B6846
S315000036900918216063605460CBE7C04630050020FE
S315000036A0704770470B1F1B68181F002B01DA0B5859
S315000036B0C01870474275696C742077697468205227
S315000036C0656E6573617320416476616E636564201F
S315000036D0466C657869626C6520536F6674776172B3
S315000036E065205061636B6167652076657273696FEB
S315000036F06E20352E342E3000352E342E300000004C
S3150000370000000405F8B5C046F8BC08BC9E467047E4
S31500003710F8B5C046F8BC08BC9E4670474653505F95
S3150000372053554343455353203D3D20726574000075
S315000037302E2E2F7372632F6273702F6164632E6354
S31500003740000000004653505F5355434345535320F2
S315000037503D3D2065727200002E2E2F7372632F621C
S3150000376073702F70776D2E6300FFFFFF6273705FBB
S315000037706164635F696E697400FFFFFF0501040100
S315000037800301020101010001000501050D000E0003
S315000037900F0002056273705F70776D5F757064610C
S315000037A0746500FF6273705F70776D5F696E697430
S315000037B000FFFFFF09010A010B010C010D010601C3
S315000037C007010602050204020403030301030203C0
S315000037D00702080201010000D007D0077D007D0026
S315000037E004080102E8030020C4380000343A00004F
S315000037F0F0030020FC370000103A00000002000031
S3150000380002000201020202030000000000000000A4
S31500003810290A0000000000001C380000000100001A
S31500003820200000200F00FFFF00000000FFFF000047
S3150000383002000000C05D000000000000E02E000055
S3150000384006FFDF0000000000000000005038000006
S31500003850000101010000000000000000000000005F
S315000038600000000000000000000000000000000052
S315000038700000FFFFDFDF0000000000000000000086
S31500003880000000000000000000000000050000002D
S31500003890000000000000000000000000000000180A
S315000038A000000000000F04DF0003FF00FD0600001B
S315000038B000000000B838000000013F3F000000DFB4
S315000038C0DFFFFFFF24000000D038000000000000EA
S315000038D000800000000000000080000002000000E0
S315000038E0000000000D000000000000000E000000B7
S315000038F0000000000F0000000000000000010000B2
S3150000390000000000010100000000000002010000AC
S315000039100000000003010000000000000401000098
S315000039200000000005010000040000000601000080
S31500003930040000000701000000000100080100006B
S315000039400400000009010000040000000A01000054
S31500003950040000000B010000040000000C01000040
S31500003960040000000D010000040000000402000035
S31500003970040000000502000004000000060200002A
S315000039800400000007020000040000000802000016
S315000039900000010000030000040000000103000015
S315000039A004000000020300000400000003030000FE
S315000039B004000000040300000400000000040000EE
S315000039C00000010301040000000001040A040000D5
S315000039D0000001040B0400000000000000050000C8
S315000039E000000000010500000000000002050000C4
S315000039F012100F0F0700000000000000000000007A
S31500003A0000000000000000000000000000000000B0
S31500003A10C5130000351200003D120000911200008F
S31500003A20D5120000E11200008512000065130000A7
S31500003A3009130000B119000091170000C919000010
S31500003A40D519000059180000A518000099170000A4
S31500003A50F51700001D180000411800008518000029
S31500003A60BD170000D5170000010002000800100075
S30900003A70000000004C
S31500003A7403000000610C000004000000610C00005B
S31500003A8410000000090E0000000000000000000005
S31500003A9450000C002800002000000000340500201F
S31500003AA49C05002004060020000000000000000021
S31500003AB400000000000000000000000000000000FC
S31500003AC400000000000000000000000000000000EC
S31500003AD400000000000000000000000000000000DC
S31100003AE400000000BD0400008D0400007E
S31501010018FFFFFFFFFFFFFFFFFFFFFFFFFFFFFFFFE0
S31101010028FFFFFFFFFFFFFFFFFFFFFFFFD0
S705000027BD16
